{
  "contractName": "asset",
  "abi": [
    {
      "constant": true,
      "inputs": [],
      "name": "creatorAdmin",
      "outputs": [
        {
          "name": "",
          "type": "address"
        }
      ],
      "payable": false,
      "stateMutability": "view",
      "type": "function"
    },
    {
      "constant": true,
      "inputs": [
        {
          "name": "",
          "type": "uint256"
        }
      ],
      "name": "propOwnerChange",
      "outputs": [
        {
          "name": "",
          "type": "address"
        }
      ],
      "payable": false,
      "stateMutability": "view",
      "type": "function"
    },
    {
      "constant": true,
      "inputs": [
        {
          "name": "",
          "type": "address"
        }
      ],
      "name": "users",
      "outputs": [
        {
          "name": "",
          "type": "int256"
        }
      ],
      "payable": false,
      "stateMutability": "view",
      "type": "function"
    },
    {
      "constant": true,
      "inputs": [
        {
          "name": "",
          "type": "address"
        }
      ],
      "name": "verifiedUsers",
      "outputs": [
        {
          "name": "",
          "type": "bool"
        }
      ],
      "payable": false,
      "stateMutability": "view",
      "type": "function"
    },
    {
      "constant": true,
      "inputs": [
        {
          "name": "",
          "type": "uint256"
        }
      ],
      "name": "properties",
      "outputs": [
        {
          "name": "status",
          "type": "uint8"
        },
        {
          "name": "value",
          "type": "uint256"
        },
        {
          "name": "currOwner",
          "type": "address"
        }
      ],
      "payable": false,
      "stateMutability": "view",
      "type": "function"
    },
    {
      "inputs": [],
      "payable": false,
      "stateMutability": "nonpayable",
      "type": "constructor"
    },
    {
      "constant": false,
      "inputs": [
        {
          "name": "_propId",
          "type": "uint256"
        },
        {
          "name": "_value",
          "type": "uint256"
        },
        {
          "name": "_owner",
          "type": "address"
        }
      ],
      "name": "createProperty",
      "outputs": [
        {
          "name": "",
          "type": "bool"
        }
      ],
      "payable": false,
      "stateMutability": "nonpayable",
      "type": "function"
    },
    {
      "constant": false,
      "inputs": [
        {
          "name": "_propId",
          "type": "uint256"
        }
      ],
      "name": "approveProperty",
      "outputs": [
        {
          "name": "",
          "type": "bool"
        }
      ],
      "payable": false,
      "stateMutability": "nonpayable",
      "type": "function"
    },
    {
      "constant": false,
      "inputs": [
        {
          "name": "_propId",
          "type": "uint256"
        }
      ],
      "name": "rejectProperty",
      "outputs": [
        {
          "name": "",
          "type": "bool"
        }
      ],
      "payable": false,
      "stateMutability": "nonpayable",
      "type": "function"
    },
    {
      "constant": false,
      "inputs": [
        {
          "name": "_propId",
          "type": "uint256"
        },
        {
          "name": "_newOwner",
          "type": "address"
        }
      ],
      "name": "changeOwnership",
      "outputs": [
        {
          "name": "",
          "type": "bool"
        }
      ],
      "payable": false,
      "stateMutability": "nonpayable",
      "type": "function"
    },
    {
      "constant": false,
      "inputs": [
        {
          "name": "_propId",
          "type": "uint256"
        }
      ],
      "name": "approveChangeOwnership",
      "outputs": [
        {
          "name": "",
          "type": "bool"
        }
      ],
      "payable": false,
      "stateMutability": "nonpayable",
      "type": "function"
    },
    {
      "constant": false,
      "inputs": [
        {
          "name": "_propId",
          "type": "uint256"
        },
        {
          "name": "_newValue",
          "type": "uint256"
        }
      ],
      "name": "changeValue",
      "outputs": [
        {
          "name": "",
          "type": "bool"
        }
      ],
      "payable": false,
      "stateMutability": "nonpayable",
      "type": "function"
    },
    {
      "constant": true,
      "inputs": [
        {
          "name": "_propId",
          "type": "uint256"
        }
      ],
      "name": "getPropertyDetails",
      "outputs": [
        {
          "name": "",
          "type": "uint8"
        },
        {
          "name": "",
          "type": "uint256"
        },
        {
          "name": "",
          "type": "address"
        }
      ],
      "payable": false,
      "stateMutability": "view",
      "type": "function"
    },
    {
      "constant": false,
      "inputs": [
        {
          "name": "_newUser",
          "type": "address"
        }
      ],
      "name": "addNewUser",
      "outputs": [
        {
          "name": "",
          "type": "bool"
        }
      ],
      "payable": false,
      "stateMutability": "nonpayable",
      "type": "function"
    },
    {
      "constant": false,
      "inputs": [
        {
          "name": "_newAdmin",
          "type": "address"
        }
      ],
      "name": "addNewAdmin",
      "outputs": [
        {
          "name": "",
          "type": "bool"
        }
      ],
      "payable": false,
      "stateMutability": "nonpayable",
      "type": "function"
    },
    {
      "constant": false,
      "inputs": [
        {
          "name": "_newSuperAdmin",
          "type": "address"
        }
      ],
      "name": "addNewSuperAdmin",
      "outputs": [
        {
          "name": "",
          "type": "bool"
        }
      ],
      "payable": false,
      "stateMutability": "nonpayable",
      "type": "function"
    },
    {
      "constant": false,
      "inputs": [
        {
          "name": "_newUser",
          "type": "address"
        }
      ],
      "name": "approveUsers",
      "outputs": [
        {
          "name": "",
          "type": "bool"
        }
      ],
      "payable": false,
      "stateMutability": "nonpayable",
      "type": "function"
    }
  ],
  "bytecode": "0x6060604052341561000f57600080fd5b336000806101000a81548173ffffffffffffffffffffffffffffffffffffffff021916908373ffffffffffffffffffffffffffffffffffffffff16021790555060038060008060009054906101000a900473ffffffffffffffffffffffffffffffffffffffff1673ffffffffffffffffffffffffffffffffffffffff1673ffffffffffffffffffffffffffffffffffffffff168152602001908152602001600020819055506001600460008060009054906101000a900473ffffffffffffffffffffffffffffffffffffffff1673ffffffffffffffffffffffffffffffffffffffff1673ffffffffffffffffffffffffffffffffffffffff16815260200190815260200160002060006101000a81548160ff02191690831515021790555061178a8061013c6000396000f3006060604052600436106100e6576000357c0100000000000000000000000000000000000000000000000000000000900463ffffffff1680630a1b10e1146100eb578063126dbe431461013c57806327983fcf146101bb57806332282f8e146101f65780634c82d0e4146102475780637b855bf0146102985780638709b2e7146102ed57806389b3887e146103315780639448f03d1461038b5780639c4ea46a146103ee578063a87430ba14610451578063c1d5e84f1461049e578063e35fe366146104ef578063e9b66f8c14610540578063eeb294e21461057b578063f7b10808146105b6575b600080fd5b34156100f657600080fd5b610122600480803573ffffffffffffffffffffffffffffffffffffffff16906020019091905050610635565b604051808215151515815260200191505060405180910390f35b341561014757600080fd5b61015d60048080359060200190919050506107d4565b6040518084600381111561016d57fe5b60ff1681526020018381526020018273ffffffffffffffffffffffffffffffffffffffff1673ffffffffffffffffffffffffffffffffffffffff168152602001935050505060405180910390f35b34156101c657600080fd5b6101dc6004808035906020019091905050610858565b604051808215151515815260200191505060405180910390f35b341561020157600080fd5b61022d600480803573ffffffffffffffffffffffffffffffffffffffff169060200190919050506109ae565b604051808215151515815260200191505060405180910390f35b341561025257600080fd5b61027e600480803573ffffffffffffffffffffffffffffffffffffffff16906020019091905050610b02565b604051808215151515815260200191505060405180910390f35b34156102a357600080fd5b6102ab610ca0565b604051808273ffffffffffffffffffffffffffffffffffffffff1673ffffffffffffffffffffffffffffffffffffffff16815260200191505060405180910390f35b34156102f857600080fd5b6103176004808035906020019091908035906020019091905050610cc5565b604051808215151515815260200191505060405180910390f35b341561033c57600080fd5b610371600480803590602001909190803573ffffffffffffffffffffffffffffffffffffffff16906020019091905050610dcc565b604051808215151515815260200191505060405180910390f35b341561039657600080fd5b6103d4600480803590602001909190803590602001909190803573ffffffffffffffffffffffffffffffffffffffff16906020019091905050610fd5565b604051808215151515815260200191505060405180910390f35b34156103f957600080fd5b61040f60048080359060200190919050506111ae565b604051808273ffffffffffffffffffffffffffffffffffffffff1673ffffffffffffffffffffffffffffffffffffffff16815260200191505060405180910390f35b341561045c57600080fd5b610488600480803573ffffffffffffffffffffffffffffffffffffffff169060200190919050506111e1565b6040518082815260200191505060405180910390f35b34156104a957600080fd5b6104d5600480803573ffffffffffffffffffffffffffffffffffffffff169060200190919050506111f9565b604051808215151515815260200191505060405180910390f35b34156104fa57600080fd5b610526600480803573ffffffffffffffffffffffffffffffffffffffff1690602001909190505061139a565b604051808215151515815260200191505060405180910390f35b341561054b57600080fd5b61056160048080359060200190919050506113ba565b604051808215151515815260200191505060405180910390f35b341561058657600080fd5b61059c6004808035906020019091905050611510565b604051808215151515815260200191505060405180910390f35b34156105c157600080fd5b6105d76004808035906020019091905050611707565b604051808460038111156105e757fe5b60ff1681526020018381526020018273ffffffffffffffffffffffffffffffffffffffff1673ffffffffffffffffffffffffffffffffffffffff168152602001935050505060405180910390f35b600060038060003373ffffffffffffffffffffffffffffffffffffffff1673ffffffffffffffffffffffffffffffffffffffff168152602001908152602001600020541480156106ce5750600460003373ffffffffffffffffffffffffffffffffffffffff1673ffffffffffffffffffffffffffffffffffffffff16815260200190815260200160002060009054906101000a900460ff165b15156106d957600080fd5b6000600360008473ffffffffffffffffffffffffffffffffffffffff1673ffffffffffffffffffffffffffffffffffffffff1681526020019081526020016000205414151561072757600080fd5b60001515600460008473ffffffffffffffffffffffffffffffffffffffff1673ffffffffffffffffffffffffffffffffffffffff16815260200190815260200160002060009054906101000a900460ff16151514151561078657600080fd5b6002600360008473ffffffffffffffffffffffffffffffffffffffff1673ffffffffffffffffffffffffffffffffffffffff1681526020019081526020016000208190555060019050919050565b60008060006001600085815260200190815260200160002060000160009054906101000a900460ff1660016000868152602001908152602001600020600101546001600087815260200190815260200160002060020160009054906101000a900473ffffffffffffffffffffffffffffffffffffffff169250925092509193909250565b600060038060003373ffffffffffffffffffffffffffffffffffffffff1673ffffffffffffffffffffffffffffffffffffffff168152602001908152602001600020541480156108f15750600460003373ffffffffffffffffffffffffffffffffffffffff1673ffffffffffffffffffffffffffffffffffffffff16815260200190815260200160002060009054906101000a900460ff165b15156108fc57600080fd5b3373ffffffffffffffffffffffffffffffffffffffff166001600084815260200190815260200160002060020160009054906101000a900473ffffffffffffffffffffffffffffffffffffffff1673ffffffffffffffffffffffffffffffffffffffff161415151561096d57600080fd5b60036001600084815260200190815260200160002060000160006101000a81548160ff021916908360038111156109a057fe5b021790555060019050919050565b600060038060003373ffffffffffffffffffffffffffffffffffffffff1673ffffffffffffffffffffffffffffffffffffffff16815260200190815260200160002054148015610a475750600460003373ffffffffffffffffffffffffffffffffffffffff1673ffffffffffffffffffffffffffffffffffffffff16815260200190815260200160002060009054906101000a900460ff165b1515610a5257600080fd5b6000600360008473ffffffffffffffffffffffffffffffffffffffff1673ffffffffffffffffffffffffffffffffffffffff1681526020019081526020016000205414151515610aa157600080fd5b6001600460008473ffffffffffffffffffffffffffffffffffffffff1673ffffffffffffffffffffffffffffffffffffffff16815260200190815260200160002060006101000a81548160ff02191690831515021790555060019050919050565b600060038060003373ffffffffffffffffffffffffffffffffffffffff1673ffffffffffffffffffffffffffffffffffffffff16815260200190815260200160002054148015610b9b5750600460003373ffffffffffffffffffffffffffffffffffffffff1673ffffffffffffffffffffffffffffffffffffffff16815260200190815260200160002060009054906101000a900460ff165b1515610ba657600080fd5b6000600360008473ffffffffffffffffffffffffffffffffffffffff1673ffffffffffffffffffffffffffffffffffffffff16815260200190815260200160002054141515610bf457600080fd5b60001515600460008473ffffffffffffffffffffffffffffffffffffffff1673ffffffffffffffffffffffffffffffffffffffff16815260200190815260200160002060009054906101000a900460ff161515141515610c5357600080fd5b60038060008473ffffffffffffffffffffffffffffffffffffffff1673ffffffffffffffffffffffffffffffffffffffff1681526020019081526020016000208190555060019050919050565b6000809054906101000a900473ffffffffffffffffffffffffffffffffffffffff1681565b6000823373ffffffffffffffffffffffffffffffffffffffff166001600083815260200190815260200160002060020160009054906101000a900473ffffffffffffffffffffffffffffffffffffffff1673ffffffffffffffffffffffffffffffffffffffff16141515610d3857600080fd5b600073ffffffffffffffffffffffffffffffffffffffff166002600086815260200190815260200160002060009054906101000a900473ffffffffffffffffffffffffffffffffffffffff1673ffffffffffffffffffffffffffffffffffffffff16141515610da657600080fd5b826001600086815260200190815260200160002060010181905550600191505092915050565b6000823373ffffffffffffffffffffffffffffffffffffffff166001600083815260200190815260200160002060020160009054906101000a900473ffffffffffffffffffffffffffffffffffffffff1673ffffffffffffffffffffffffffffffffffffffff16141515610e3f57600080fd5b82600460008273ffffffffffffffffffffffffffffffffffffffff1673ffffffffffffffffffffffffffffffffffffffff16815260200190815260200160002060009054906101000a900460ff161515610e9857600080fd5b8373ffffffffffffffffffffffffffffffffffffffff166001600087815260200190815260200160002060020160009054906101000a900473ffffffffffffffffffffffffffffffffffffffff1673ffffffffffffffffffffffffffffffffffffffff1614151515610f0957600080fd5b600073ffffffffffffffffffffffffffffffffffffffff166002600087815260200190815260200160002060009054906101000a900473ffffffffffffffffffffffffffffffffffffffff1673ffffffffffffffffffffffffffffffffffffffff16141515610f7757600080fd5b836002600087815260200190815260200160002060006101000a81548173ffffffffffffffffffffffffffffffffffffffff021916908373ffffffffffffffffffffffffffffffffffffffff16021790555060019250505092915050565b60006002600360003373ffffffffffffffffffffffffffffffffffffffff1673ffffffffffffffffffffffffffffffffffffffff16815260200190815260200160002054121580156110705750600460003373ffffffffffffffffffffffffffffffffffffffff1673ffffffffffffffffffffffffffffffffffffffff16815260200190815260200160002060009054906101000a900460ff165b151561107b57600080fd5b81600460008273ffffffffffffffffffffffffffffffffffffffff1673ffffffffffffffffffffffffffffffffffffffff16815260200190815260200160002060009054906101000a900460ff1615156110d457600080fd5b606060405190810160405280600160038111156110ed57fe5b81526020018581526020018473ffffffffffffffffffffffffffffffffffffffff168152506001600087815260200190815260200160002060008201518160000160006101000a81548160ff0219169083600381111561114957fe5b02179055506020820151816001015560408201518160020160006101000a81548173ffffffffffffffffffffffffffffffffffffffff021916908373ffffffffffffffffffffffffffffffffffffffff16021790555090505060019150509392505050565b60026020528060005260406000206000915054906101000a900473ffffffffffffffffffffffffffffffffffffffff1681565b60036020528060005260406000206000915090505481565b60006002600360003373ffffffffffffffffffffffffffffffffffffffff1673ffffffffffffffffffffffffffffffffffffffff16815260200190815260200160002054121580156112945750600460003373ffffffffffffffffffffffffffffffffffffffff1673ffffffffffffffffffffffffffffffffffffffff16815260200190815260200160002060009054906101000a900460ff165b151561129f57600080fd5b6000600360008473ffffffffffffffffffffffffffffffffffffffff1673ffffffffffffffffffffffffffffffffffffffff168152602001908152602001600020541415156112ed57600080fd5b60001515600460008473ffffffffffffffffffffffffffffffffffffffff1673ffffffffffffffffffffffffffffffffffffffff16815260200190815260200160002060009054906101000a900460ff16151514151561134c57600080fd5b6001600360008473ffffffffffffffffffffffffffffffffffffffff1673ffffffffffffffffffffffffffffffffffffffff1681526020019081526020016000208190555060019050919050565b60046020528060005260406000206000915054906101000a900460ff1681565b600060038060003373ffffffffffffffffffffffffffffffffffffffff1673ffffffffffffffffffffffffffffffffffffffff168152602001908152602001600020541480156114535750600460003373ffffffffffffffffffffffffffffffffffffffff1673ffffffffffffffffffffffffffffffffffffffff16815260200190815260200160002060009054906101000a900460ff165b151561145e57600080fd5b3373ffffffffffffffffffffffffffffffffffffffff166001600084815260200190815260200160002060020160009054906101000a900473ffffffffffffffffffffffffffffffffffffffff1673ffffffffffffffffffffffffffffffffffffffff16141515156114cf57600080fd5b60026001600084815260200190815260200160002060000160006101000a81548160ff0219169083600381111561150257fe5b021790555060019050919050565b600060038060003373ffffffffffffffffffffffffffffffffffffffff1673ffffffffffffffffffffffffffffffffffffffff168152602001908152602001600020541480156115a95750600460003373ffffffffffffffffffffffffffffffffffffffff1673ffffffffffffffffffffffffffffffffffffffff16815260200190815260200160002060009054906101000a900460ff165b15156115b457600080fd5b600073ffffffffffffffffffffffffffffffffffffffff166002600084815260200190815260200160002060009054906101000a900473ffffffffffffffffffffffffffffffffffffffff1673ffffffffffffffffffffffffffffffffffffffff161415151561162357600080fd5b6002600083815260200190815260200160002060009054906101000a900473ffffffffffffffffffffffffffffffffffffffff166001600084815260200190815260200160002060020160006101000a81548173ffffffffffffffffffffffffffffffffffffffff021916908373ffffffffffffffffffffffffffffffffffffffff16021790555060006002600084815260200190815260200160002060006101000a81548173ffffffffffffffffffffffffffffffffffffffff021916908373ffffffffffffffffffffffffffffffffffffffff16021790555060019050919050565b60016020528060005260406000206000915090508060000160009054906101000a900460ff16908060010154908060020160009054906101000a900473ffffffffffffffffffffffffffffffffffffffff169050835600a165627a7a723058200df8929395041aff2deec43ccf37c6af8553f912ba9b81ce0ac3ab09d3982a5b0029",
  "source": "pragma solidity ^0.4.4;\r\n\r\ncontract asset {\r\n\r\n    address public creatorAdmin;\r\n\tenum Status { NotExist, Pending, Approved, Rejected }\r\n\r\n\tstruct PropertyDetail {\r\n\t\tStatus status;\r\n\t\tuint value;\r\n\t\taddress currOwner;\r\n\t}\r\n\r\n\t// Dictionary of all the properties, mapped using their { propertyId: PropertyDetail } pair.\r\n\tmapping(uint => PropertyDetail) public properties;\r\n\tmapping(uint => address) public propOwnerChange;\r\n\r\n    mapping(address => int) public users;\r\n    mapping(address => bool) public verifiedUsers;\r\n\r\n\tmodifier onlyOwner(uint _propId) {\r\n\t\trequire(properties[_propId].currOwner == msg.sender);\r\n\t\t_;\r\n\t}\r\n\r\n\tmodifier verifiedUser(address _user) {\r\n\t    require(verifiedUsers[_user]);\r\n\t    _;\r\n\t}\r\n\r\n\tmodifier verifiedAdmin() {\r\n\t\trequire(users[msg.sender] >= 2 && verifiedUsers[msg.sender]);\r\n\t\t_;\r\n\t}\r\n\r\n\tmodifier verifiedSuperAdmin() {\r\n\t    require(users[msg.sender] == 3 && verifiedUsers[msg.sender]);\r\n\t    _;\r\n\t}\r\n\r\n\t// Initializing the User Contract.\r\n\tfunction asset() {\r\n\t\tcreatorAdmin = msg.sender;\r\n\t\tusers[creatorAdmin] = 3;\r\n\t\tverifiedUsers[creatorAdmin] = true;\r\n\t}\r\n\r\n\t// Create a new Property.\r\n\tfunction createProperty(uint _propId, uint _value, address _owner) verifiedAdmin verifiedUser(_owner) returns (bool) {\r\n\t\tproperties[_propId] = PropertyDetail(Status.Pending, _value, _owner);\r\n\t\treturn true;\r\n\t}\r\n\r\n\t// Approve the new Property.\r\n\tfunction approveProperty(uint _propId) verifiedSuperAdmin returns (bool){\r\n\t\trequire(properties[_propId].currOwner != msg.sender);\r\n\t\tproperties[_propId].status = Status.Approved;\r\n\t\treturn true;\r\n\t}\r\n\r\n\t// Reject the new Property.\r\n\tfunction rejectProperty(uint _propId) verifiedSuperAdmin returns (bool){\r\n\t\trequire(properties[_propId].currOwner != msg.sender);\r\n\t\tproperties[_propId].status = Status.Rejected;\r\n\t\treturn true;\r\n\t}\r\n\r\n\t// Request Change of Ownership.\r\n\tfunction changeOwnership(uint _propId, address _newOwner) onlyOwner(_propId) verifiedUser(_newOwner) returns (bool) {\r\n\t\trequire(properties[_propId].currOwner != _newOwner);\r\n\t\trequire(propOwnerChange[_propId] == address(0));\r\n\t\tpropOwnerChange[_propId] = _newOwner;\r\n\t\treturn true;\r\n\t}\r\n\r\n\t// Approve chage in Onwership.\r\n\tfunction approveChangeOwnership(uint _propId) verifiedSuperAdmin returns (bool) {\r\n\t    require(propOwnerChange[_propId] != address(0));\r\n\t    properties[_propId].currOwner = propOwnerChange[_propId];\r\n\t    propOwnerChange[_propId] = address(0);\r\n\t    return true;\r\n\t}\r\n\r\n\t// Change the price of the property.\r\n    function changeValue(uint _propId, uint _newValue) onlyOwner(_propId) returns (bool) {\r\n        require(propOwnerChange[_propId] == address(0));\r\n        properties[_propId].value = _newValue;\r\n        return true;\r\n    }\r\n\r\n\t// Get the property details.\r\n\tfunction getPropertyDetails(uint _propId) constant returns (Status, uint, address) {\r\n\t\treturn (properties[_propId].status, properties[_propId].value, properties[_propId].currOwner);\r\n\t}\r\n\r\n\t// Add new user.\r\n\tfunction addNewUser(address _newUser) verifiedAdmin returns (bool) {\r\n\t    require(users[_newUser] == 0);\r\n\t    require(verifiedUsers[_newUser] == false);\r\n\t    users[_newUser] = 1;\r\n\t    return true;\r\n\t}\r\n\r\n\t// Add new Admin.\r\n\tfunction addNewAdmin(address _newAdmin) verifiedSuperAdmin returns (bool) {\r\n\t    require(users[_newAdmin] == 0);\r\n\t    require(verifiedUsers[_newAdmin] == false);\r\n\t    users[_newAdmin] = 2;\r\n\t    return true;\r\n\t}\r\n\r\n\t// Add new SuperAdmin.\r\n\tfunction addNewSuperAdmin(address _newSuperAdmin) verifiedSuperAdmin returns (bool) {\r\n\t    require(users[_newSuperAdmin] == 0);\r\n\t    require(verifiedUsers[_newSuperAdmin] == false);\r\n\t    users[_newSuperAdmin] = 3;\r\n\t    return true;\r\n\t}\r\n\r\n\t// Approve User.\r\n\tfunction approveUsers(address _newUser) verifiedSuperAdmin returns (bool) {\r\n\t    require(users[_newUser] != 0);\r\n\t    verifiedUsers[_newUser] = true;\r\n\t    return true;\r\n\t}\r\n}\r\n",
  "sourcePath": "/home/sreeraj/assset/contracts/asset.sol",
  "compiler": {
    "name": "solc",
    "version": "0.4.19+commit.c4cbbb05.Emscripten.clang"
  },
  "schemaVersion": "2.0.0",
  "updatedAt": "2018-03-30T22:15:20.125Z"
}